:100000000C942A000C94BC2A0C94672B0C94772B2C
:100010000C943F000C943F000C943F000C943F0064
:100020000C943F000C943F000C943F000C943F0054
:100030000C943F000C943F000C943F000C943F0044
:100040000C943F000C943F000C943F000C943F0034
:100050000C943F0011241FBECFE5D8E0DEBFCDBF1A
:1000600011E0A0E6B0E0E0ECFBE502C005900D92E7
:10007000A83CB107D9F70E949C2D0C94DE2D0C945E
:100080000000EF92FF920F931F937B018C0120E001
:1000900030E040E05FE40E94410388238CF0C80117
:1000A000B70120E030E040E05FE40E94B9010E9427
:1000B000A1039B01AC01205030404040504806C095
:1000C000C801B7010E94A1039B01AC01B901CA019B
:1000D0001F910F91FF90EF900895A0E0B0E0E3E74B
:1000E000F0E00C94A72DDC012B01FA019C919230D9
:1000F00008F439C1EB018881823008F433C19430AF
:1001000069F4843009F02FC111969C91119789816F
:10011000981709F428C1A7E8B0E025C1843009F494
:1001200021C18230A9F4923009F01DC19A01AD01BC
:1001300088E0EA010990AE01E90109929E0181502F
:10014000C1F7E201898111969C918923818308C1BD
:10015000923009F407C112962D903C901397EB0151
:100160008A819B811496AD90BD90CD90DC901797BD
:10017000EC80FD800E811F819101281B390BB90194
:1001800037FF04C066277727621B730B6032710547
:100190000CF061C0121613066CF537014801062EEB
:1001A00004C096948794779467940A94D2F721E0D8
:1001B00030E040E050E004C0220F331F441F551FC1
:1001C0006A95D2F721503040404050402E213F21C7
:1001D00040235123211531054105510521F021E02E
:1001E00030E040E050E079018A01E628F72808294C
:1001F00019293CC0232BD1F1260E371E35014601AB
:10020000062E04C096948794779467940A94D2F744
:1002100021E030E040E050E004C0220F331F441FD3
:10022000551F6A95D2F721503040404050402A2156
:100230003B214C215D21211531054105510521F05E
:1002400021E030E040E050E059016A01A628B728DB
:10025000C828D9280BC0821593052CF01C01AA24AC
:10026000BB24650103C0EE24FF24870111969C91F5
:10027000D20111968C91981709F445C0992339F051
:10028000A80197012A193B094C095D0906C0A6017E
:1002900095012E193F09400B510B57FD08C01182E3
:1002A0003382228224833583468357831DC081E0B5
:1002B00081833382228288279927DC01821B930B5A
:1002C000A40BB50B84839583A683B7830DC0220F3F
:1002D000331F441F551F24833583468357838281F0
:1002E000938101979383828324813581468157814D
:1002F000DA01C9010197A109B1098F5F9F4FAF4F83
:10030000BF4328F30BC0918333822282EA0CFB1C8B
:100310000C1D1D1DE482F5820683178383E0808314
:10032000248135814681578157FF1AC0C901AA2708
:1003300097FDA095BA2F81709070A070B0705695FF
:10034000479537952795822B932BA42BB52B848328
:100350009583A683B7838281938101969383828359
:10036000DF0101C0D201CD01CDB7DEB7E2E10C94CF
:10037000C32DA0E2B0E0EFEBF1E00C94B32D698364
:100380007A838B839C832D833E834F835887E9E058
:10039000EE2EF12CEC0EFD1ECE010196B7010E944F
:1003A00092058E010F5E1F4FCE010596B8010E9487
:1003B00092058A8991E089278A8BC701B801AE012D
:1003C000475E5F4F0E946D000E94BD04A096E6E06C
:1003D0000C94CF2DA0E2B0E0E0EFF1E00C94B32D4F
:1003E00069837A838B839C832D833E834F835887D5
:1003F000F9E0EF2EF12CEC0EFD1ECE010196B701B7
:100400000E9492058E010F5E1F4FCE010596B80126
:100410000E949205C701B801AE01475E5F4F0E947E
:100420006D000E94BD04A096E6E00C94CF2DA0E2E2
:10043000B0E0EDE1F2E00C94A72D69837A838B8321
:100440009C832D833E834F835887CE010196BE0146
:10045000675F7F4F0E949205CE010596BE016F5ED9
:100460007F4F0E9492059985923088F08989823069
:10047000C8F0943019F4823051F404C0843029F467
:10048000923081F487E890E0C6C0923049F420E0D1
:100490009A858A89981321E02A87CE010996BBC0E4
:1004A000823049F420E09A858A89981321E02A8BCA
:1004B000CE014196B0C02D843E844F8458886D880B
:1004C0007E888F88988CEE24FF248701AA24BB2481
:1004D000650140E050E060E070E0E0E0F0E0C10184
:1004E00081709070892BE9F0E60CF71C081D191D2E
:1004F0009A01AB012A0D3B1D4C1D5D1D80E090E073
:10050000A0E0B0E0E614F7040805190520F481E046
:1005100090E0A0E0B0E0BA01A901480F591F6A1F9E
:100520007B1FAA0CBB1CCC1CDD1C97FE08C081E005
:1005300090E0A0E0B0E0A82AB92ACA2ADB2A3196C6
:10054000E032F10549F0660C771C881C991C569422
:10055000479437942794C3CFFA85EA892B893C893D
:100560008B859C85280F391F2E5F3F4F17C0CA010E
:1005700081709070892B61F016950795F794E79438
:1005800080E090E0A0E0B0E8E82AF92A0A2B1B2BD3
:1005900076956795579547952F5F3F4F77FDE7CF46
:1005A0000CC0440F551F661F771F17FD4160EE0CEE
:1005B000FF1C001F111F21503040403090E05907B0
:1005C00090E0690790E4790760F32B8F3C8FDB01A3
:1005D000CA018F779070A070B07080349105A1052A
:1005E000B10561F447FD0AC0E114F10401051105EC
:1005F00029F0405C5F4F6F4F7F4F40781A8EFE1797
:1006000011F081E08A8F4D8F5E8F6F8F78A383E02A
:10061000898FCE0149960E94BD04A096E2E10C9418
:10062000C32DA8E1B0E0E7E1F3E00C94B32D6983BA
:100630007A838B839C832D833E834F83588789E005
:10064000E82EF12CEC0EFD1ECE010196B7010E94A2
:1006500092058E010F5E1F4FCE010596B8010E94D4
:1006600092058985823040F08989823028F0C7015F
:10067000B8010E940A0601C08FEF6896E6E00C946C
:10068000CF2DA8E1B0E0E7E4F3E00C94B32D69834B
:100690007A838B839C832D833E834F83588789E0A5
:1006A000E82EF12CEC0EFD1ECE010196B7010E9442
:1006B00092058E010F5E1F4FCE010596B8010E9474
:1006C00092058985823040F08989823028F0C701FF
:1006D000B8010E940A0601C08FEF6896E6E00C940C
:1006E000CF2DA8E1B0E0E7E7F3E00C94B32D6983E8
:1006F0007A838B839C832D833E834F83588789E045
:10070000E82EF12CEC0EFD1ECE010196B7010E94E1
:1007100092058E010F5E1F4FCE010596B8010E9413
:1007200092058985823040F08989823028F0C7019E
:10073000B8010E940A0601C081E06896E6E00C94C8
:10074000CF2DACE0B0E0E7EAF3E00C94B72D69837D
:100750007A838B839C83CE010196BE016B5F7F4FB2
:100760000E9492058D81823061F1823050F1843097
:1007700021F48E81882351F12EC02F81388537FDD9
:1007800020C06E812F3131051CF06623F9F023C0A3
:100790008EE190E0821B930B29853A854B855C8521
:1007A00004C056954795379527958A95D2F76623C5
:1007B000B1F050954095309521953F4F4F4F5F4F89
:1007C0000EC020E030E040E050E009C02FEF3FEFE6
:1007D0004FEF5FE704C020E030E040E050E8B901AF
:1007E000CA012C96E2E00C94D32DA8E0B0E0EBEF28
:1007F000F3E00C94AF2D7B018C016115710581052F
:10080000910519F482E0898360C083E089838EE1D9
:10081000C82ED12CDC82CB82ED82FE820F8318871A
:10082000C801B7010E946E04FC013197F7FF3BC07D
:10083000222733272E1B3F0B57016801022E04C0CD
:10084000D694C794B794A7940A94D2F740E050E0A6
:1008500060E070E081E090E0A0E0B0E004C0880FCC
:10086000991FAA1FBB1F2A95D2F70197A109B109A9
:100870008E219F21A023B1230097A105B10521F06E
:1008800041E050E060E070E04A295B296C297D2955
:100890004D835E836F8378878EE190E08E1B9F0B84
:1008A0009C838B8312C0309781F00E2E04C0EE0C17
:1008B000FF1C001F111F0A94D2F7ED82FE820F83E6
:1008C0001887CE1ADF0ADC82CB821A82CE0101960B
:1008D0000E94BD042896EAE00C94CB2DEF92FF9283
:1008E0000F931F937B018C0180E0E81680E0F806EF
:1008F00081E0080780E0180788F48FEFE816F1041C
:100900000105110531F028F088E090E0A0E0B0E0AA
:1009100017C080E090E0A0E0B0E012C080E0E816F0
:1009200080E0F80680E0080781E0180728F088E1F9
:1009300090E0A0E0B0E004C080E190E0A0E0B0E092
:1009400020E230E040E050E0281B390B4A0B5B0B03
:1009500004C016950795F794E7948A95D2F7F701A6
:10096000E157FF4F8081281B310941095109C90115
:100970001F910F91FF90EF900895DF92EF92FF92F9
:100980000F931F93FC01E480F58006811781D180CD
:100990008081823048F480E090E0A0E1B0E0E82A75
:1009A000F92A0A2B1B2BA5C0843009F49FC0823082
:1009B00021F4EE24FF24870105C0E114F1040105B0
:1009C000110519F4E0E0F0E096C0628173819FEFB9
:1009D000623879070CF05BC022E83FEF261B370B2B
:1009E0002A3131052CF020E030E040E050E02AC010
:1009F000B801A701022E04C07695679557954795D3
:100A00000A94D2F781E090E0A0E0B0E004C0880F43
:100A1000991FAA1FBB1F2A95D2F70197A109B109F7
:100A20008E219F21A023B1230097A105B10521F0BC
:100A300081E090E0A0E0B0E09A01AB01282B392BD7
:100A40004A2B5B2BDA01C9018F779070A070B070D0
:100A500080349105A105B10539F427FF09C0205C58
:100A60003F4F4F4F5F4F04C0215C3F4F4F4F5F4F91
:100A7000E0E0F0E02030A0E03A07A0E04A07A0E480
:100A80005A0710F0E1E0F0E079018A0127C06038F0
:100A9000710564F5FB01E158FF4FD801C7018F775D
:100AA0009070A070B07080349105A105B10539F443
:100AB000E7FE0DC080E490E0A0E0B0E004C08FE36A
:100AC00090E0A0E0B0E0E80EF91E0A1F1B1F17FF20
:100AD00005C016950795F794E794319687E016952B
:100AE0000795F794E7948A95D1F705C0EE24FF2483
:100AF0008701EFEFF0E06E2F679566276795902FDF
:100B00009F77D794DD24D7948E2F8695492F462B37
:100B1000582F5D29B701CA011F910F91FF90EF90E7
:100B2000DF900895FC01DB01408151812281622F19
:100B30006F7770E0221F2227221F9381892F880F51
:100B4000822B282F30E0991F9927991F11969C938B
:100B5000119721153105A9F541155105610571055B
:100B600011F482E037C082E89FEF13969C938E9336
:100B700012979A01AB0167E0220F331F441F551FE4
:100B80006A95D1F783E08C930DC0220F331F441F69
:100B9000551F12968D919C911397019713969C93D4
:100BA0008E931297203080E0380780E0480780E479
:100BB000580758F314962D933D934D935C931797D4
:100BC00008952F3F310579F44115510561057105EF
:100BD00019F484E08C93089564FF03C081E08C9342
:100BE00012C01C9210C02F57304013963C932E9386
:100BF000129783E08C9387E0440F551F661F771F81
:100C00008A95D1F7706414964D935D936D937C93A0
:100C1000179708951F93DC01FB019C91923008F413
:100C200047C08081823008F443C0943051F411965B
:100C30001C91843099F58181682F70E0611B7109E6
:100C40003FC0843021F0923031F48230B9F181819B
:100C5000882389F12DC011961C9111978230F1F0F3
:100C600081811817D9F412962D913C9113978281A6
:100C700093818217930794F028173907BCF01496D4
:100C80008D919D910D90BC91A02D2481358146813F
:100C90005781281739074A075B0718F4112341F0D9
:100CA0000AC082179307A407B50740F4112319F06F
:100CB00061E070E005C06FEF7FEF02C060E070E0C0
:100CC000CB011F910895DF93CF930F92CDB7DEB77D
:100CD00089838981813039F4AFE5B0E0EFE5F0E058
:100CE000808180688C938981882339F4AFE5B0E0F6
:100CF000EFE5F0E080818F778C930F90CF91DF91BB
:100D00000895DF93CF9300D0CDB7DEB789836A8390
:100D1000ABE5B0E0EBE5F0E080818F7B8C938A81DE
:100D2000882379F4A5E5B0E0E5E5F0E080818E7FE9
:100D30008C93A5E5B0E0E5E5F0E080818D7F8C93B4
:100D400047C08A81813079F4A5E5B0E0E5E5F0E0BF
:100D5000808181608C93A5E5B0E0E5E5F0E08081DD
:100D60008D7F8C9335C08A81823079F4A5E5B0E01F
:100D7000E5E5F0E080818E7F8C93A5E5B0E0E5E5C8
:100D8000F0E0808182608C9323C08A81833079F483
:100D9000A5E5B0E0E5E5F0E0808181608C93A5E514
:100DA000B0E0E5E5F0E0808182608C9311C08A813B
:100DB0008A3071F4A5E5B0E0E5E5F0E0808181607E
:100DC0008C93A5E5B0E0E5E5F0E0808182608C934E
:100DD0000F900F90CF91DF910895DF93CF9300D0C4
:100DE000CDB7DEB789836A83ABE5B0E0EBE5F0E031
:100DF00080818F778C938A81882379F4A5E5B0E090
:100E0000E5E5F0E080818B7F8C93A5E5B0E0E5E53A
:100E1000F0E08081877F8C9335C08A81813079F4BE
:100E2000A5E5B0E0E5E5F0E0808184608C93A5E580
:100E3000B0E0E5E5F0E08081877F8C9323C08A8174
:100E4000823079F4A5E5B0E0E5E5F0E080818B7FC4
:100E50008C93A5E5B0E0E5E5F0E0808188608C93B7
:100E600011C08A81833071F4A5E5B0E0E5E5F0E0DA
:100E7000808184608C93A5E5B0E0E5E5F0E08081B9
:100E800088608C930F900F90CF91DF910895DF933E
:100E9000CF930F92CDB7DEB78983ABE5B0E0EBE53A
:100EA000F0E080818F7D8C930F90CF91DF9108953A
:100EB000DF93CF9300D00F92CDB7DEB789838981BE
:100EC000282F30E03B832A838A819B8181309105E2
:100ED00089F02A813B8122303105A1F08A819B81F2
:100EE0000097B9F4AAE5B0E0EAE5F0E0808180641B
:100EF0008C930FC0AAE5B0E0EAE5F0E0808180685D
:100F00008C9307C0AAE5B0E0EAE5F0E0808180625A
:100F10008C930F900F900F90CF91DF910895DF93F6
:100F2000CF93CDB7DEB727970FB6F894DEBF0FBECD
:100F3000CDBF89836A834B838B81813009F06EC07A
:100F40008981282F30E03F832E838E819F818130DD
:100F5000910549F12E813F81223031052CF48E819B
:100F60009F81009761F05AC02E813F812230310568
:100F700071F18E819F8183309105E9F14FC0AAE321
:100F8000B0E0EAE3F0E08081482F8A81282F30E04A
:100F900081E090E0022E02C0880F991F0A94E2F7C8
:100FA000842B8C933BC0A7E3B0E0E7E3F0E08081C3
:100FB000482F8A81282F30E081E090E0022E02C085
:100FC000880F991F0A94E2F7842B8C9327C0A4E31F
:100FD000B0E0E4E3F0E08081482F8A81282F30E000
:100FE00081E090E0022E02C0880F991F0A94E2F778
:100FF000842B8C9313C0A1E3B0E0E1E3F0E08081A7
:10100000482F8A81282F30E081E090E0022E02C034
:10101000880F991F0A94E2F7842B8C938B81882385
:1010200009F073C08981282F30E03D832C838C81A7
:101030009D818130910559F12C813D81223031050E
:101040002CF48C819D81009769F05FC02C813D81DB
:101050002230310589F18C819D818330910509F41D
:1010600040C053C0AAE3B0E0EAE3F0E08081482F3B
:101070008A81282F30E081E090E0022E02C0880FA4
:10108000991F0A94E2F7809584238C933EC0A7E3CE
:10109000B0E0E7E3F0E08081482F8A81282F30E03C
:1010A00081E090E0022E02C0880F991F0A94E2F7B7
:1010B000809584238C9329C0A4E3B0E0E4E3F0E0BE
:1010C0008081482F8A81282F30E081E090E0022E35
:1010D00002C0880F991F0A94E2F7809584238C93AD
:1010E00014C0A1E3B0E0E1E3F0E08081482F8A8101
:1010F000282F30E081E090E0022E02C0880F991F77
:101100000A94E2F7809584238C9327960FB6F8947F
:10111000DEBF0FBECDBFCF91DF910895DF93CF9398
:10112000CDB7DEB727970FB6F894DEBF0FBECDBFA1
:1011300089836A834B8389816A8141E00E948F079A
:101140008B81813009F06EC08981282F30E03F8388
:101150002E838E819F818130910549F12E813F81BF
:10116000223031052CF48E819F81009761F05AC0A6
:101170002E813F812230310571F18E819F81833034
:101180009105E9F14FC0ABE3B0E0EBE3F0E0808123
:10119000482F8A81282F30E081E090E0022E02C0A3
:1011A000880F991F0A94E2F7842B8C933BC0A8E325
:1011B000B0E0E8E3F0E08081482F8A81282F30E01A
:1011C00081E090E0022E02C0880F991F0A94E2F796
:1011D000842B8C9327C0A5E3B0E0E5E3F0E08081A9
:1011E000482F8A81282F30E081E090E0022E02C053
:1011F000880F991F0A94E2F7842B8C9313C0A2E303
:10120000B0E0E2E3F0E08081482F8A81282F30E0CF
:1012100081E090E0022E02C0880F991F0A94E2F745
:10122000842B8C938B81882309F073C08981282FAC
:1012300030E03D832C838C819D818130910559F173
:101240002C813D81223031052CF48C819D810097C9
:1012500069F05FC02C813D812230310589F18C819C
:101260009D818330910509F440C053C0ABE3B0E0E9
:10127000EBE3F0E08081482F8A81282F30E081E085
:1012800090E0022E02C0880F991F0A94E2F7809521
:1012900084238C933EC0A8E3B0E0E8E3F0E08081D3
:1012A000482F8A81282F30E081E090E0022E02C092
:1012B000880F991F0A94E2F7809584238C9329C0A4
:1012C000A5E3B0E0E5E3F0E08081482F8A81282F94
:1012D00030E081E090E0022E02C0880F991F0A944E
:1012E000E2F7809584238C9314C0A2E3B0E0E2E39C
:1012F000F0E08081482F8A81282F30E081E090E063
:10130000022E02C0880F991F0A94E2F78095842369
:101310008C9327960FB6F894DEBF0FBECDBFCF914A
:10132000DF910895DF93CF93CDB7DEB728970FB63F
:10133000F894DEBF0FBECDBF89836A838A81813076
:1013400099F58981282F30E038872F838F81988500
:1013500081309105D1F02F813885223031052CF470
:101360008F819885009761F083C02F813885223066
:10137000310581F08F8198858330910581F078C0A7
:10138000EAE3F0E08FEF808373C0E7E3F0E08FEFF4
:1013900080836EC0E4E3F0E08FEF808369C0E1E317
:1013A000F0E08FEF808364C08A81882379F589819A
:1013B000282F30E03E832D838D819E8181309105E1
:1013C000C9F02D813E81223031052CF48D819E8122
:1013D000009761F04DC02D813E812230310571F0C2
:1013E0008D819E818330910569F042C0EAE3F0E08F
:1013F00010823EC0E7E3F0E010823AC0E4E3F0E0A0
:10140000108236C0E1E3F0E0108232C08981282FDB
:1014100030E03C832B838B819C8181309105D1F01E
:101420002B813C81223031052CF48B819C810097EB
:1014300061F01EC02B813C812230310581F08B810F
:101440009C818330910581F013C0EBE3F0E08A8149
:1014500080830EC0E8E3F0E08A81808309C0E5E381
:10146000F0E08A81808304C0E2E3F0E08A81808337
:1014700028960FB6F894DEBF0FBECDBFCF91DF9197
:101480000895DF93CF93CDB7DEB728970FB6F894C2
:10149000DEBF0FBECDBF89836A83898161E00E9470
:1014A00092098A81813099F58981282F30E0388727
:1014B0002F838F81988581309105D1F02F813885D8
:1014C000223031052CF48F819885009761F083C01C
:1014D0002F8138852230310581F08F8198858330C6
:1014E000910581F078C0EBE3F0E08FEF808373C06B
:1014F000E8E3F0E08FEF80836EC0E5E3F0E08FEF8C
:10150000808369C0E2E3F0E08FEF808364C08A816A
:10151000882379F58981282F30E03E832D838D81C2
:101520009E8181309105C9F02D813E8122303105A7
:101530002CF48D819E81009761F04DC02D813E81FC
:101540002230310571F08D819E818330910569F0E3
:1015500042C0EBE3F0E010823EC0E8E3F0E010822E
:101560003AC0E5E3F0E0108236C0E2E3F0E010823A
:1015700032C08981282F30E03C832B838B819C8172
:1015800081309105D1F02B813C81223031052CF442
:101590008B819C81009761F01EC02B813C812230A1
:1015A000310581F08B819C818330910581F013C0DE
:1015B000EBE3F0E08A8180830EC0E8E3F0E08A810B
:1015C000808309C0E5E3F0E08A81808304C0E2E320
:1015D000F0E08A81808328960FB6F894DEBF0FBEB4
:1015E000CDBFCF91DF910895DF93CF9300D000D08E
:1015F00000D0CDB7DEB789836A838981282F30E098
:101600003D832C838C819D818530910541F12C8116
:101610003D812630310534F48C819D8184309105E3
:1016200061F053C02C813D812630310551F18C8110
:101630009D8187309105B9F148C0E9E3F0E08081F0
:10164000482F8A81282F30E081E090E0022E02C0EE
:10165000880F991F0A94E2F784238B8337C0E6E34F
:10166000F0E08081482F8A81282F30E081E090E0EF
:10167000022E02C0880F991F0A94E2F784238B83FD
:1016800025C0E3E3F0E08081482F8A81282F30E0F5
:1016900081E090E0022E02C0880F991F0A94E2F7C1
:1016A00084238B8313C0E0E3F0E08081482F8A819C
:1016B000282F30E081E090E0022E02C0880F991FB1
:1016C0000A94E2F784238B8301C002C09B819E832E
:1016D0008E8126960FB6F894DEBF0FBECDBFCF9198
:1016E000DF910895DF93CF9300D00F92CDB7DEB78F
:1016F00089838981282F30E03B832A838A819B81DB
:101700008130910521F12A813B81223031052CF471
:101710008A819B81009761F046C02A813B812230FB
:10172000310521F18A819B818330910571F13BC0A4
:10173000A7E2B0E0E7E2F0E080818F778C93A7E248
:10174000B0E0E7E2F0E080818F7B8C932CC0A7E2D1
:10175000B0E0E7E2F0E080818F778C93A7E2B0E021
:10176000E7E2F0E0808180648C931DC0A7E2B0E0E6
:10177000E7E2F0E0808180688C93A7E2B0E0E7E2E6
:10178000F0E080818F7B8C930EC0A7E2B0E0E7E2AF
:10179000F0E0808180688C93A7E2B0E0E7E2F0E0BF
:1017A000808180648C930F900F900F90CF91DF9188
:1017B0000895DF93CF9300D000D00F92CDB7DEB75E
:1017C00089838981282F30E03C832B838B819C8106
:1017D000009731F02B813C812130310569F018C030
:1017E000A7E2B0E0E7E2F0E0808180628C93E5E27E
:1017F000F0E030813A830DC0A7E2B0E0E7E2F0E02C
:1018000080818F7D8C93E4E2F0E080818A8301C047
:1018100002C09A819D838D810F900F900F900F9041
:101820000F90CF91DF910895DF93CF9300D00F9267
:10183000CDB7DEB789838981282F30E03B832A83A7
:101840008A819B818330910509F4AAC02A813B815A
:10185000243031058CF48A819B818130910509F413
:101860004DC02A813B81223031050CF070C08A8145
:101870009B810097D1F060C12A813B8125303105E1
:1018800009F4E0C08A819B81853091050CF4B1C0D8
:101890002A813B812630310509F4FDC08A819B8174
:1018A0008730910509F420C147C180E060E040E045
:1018B0000E948F07A7E2B0E0E7E2F0E080818E7F30
:1018C0008C93A7E2B0E0E7E2F0E080818D7F8C931B
:1018D000A7E2B0E0E7E2F0E080818B7F8C93A7E2A3
:1018E000B0E0E7E2F0E08081877F8C93A7E2B0E090
:1018F000E7E2F0E080818F7E8C931EC180E061E0A2
:1019000040E00E948F07A7E2B0E0E7E2F0E08081CC
:1019100081608C93A7E2B0E0E7E2F0E080818D7F08
:101920008C93A7E2B0E0E7E2F0E080818B7F8C93BC
:10193000A7E2B0E0E7E2F0E08081877F8C93A7E246
:10194000B0E0E7E2F0E080818F7E8C93F5C080E02C
:1019500062E040E00E948F07A7E2B0E0E7E2F0E03B
:1019600080818E7F8C93A7E2B0E0E7E2F0E0808197
:1019700082608C93A7E2B0E0E7E2F0E080818B7FA9
:101980008C93A7E2B0E0E7E2F0E08081877F8C9360
:10199000A7E2B0E0E7E2F0E080818F7E8C93CCC0DC
:1019A00080E063E040E00E948F07A7E2B0E0E7E25A
:1019B000F0E0808181608C93A7E2B0E0E7E2F0E0A4
:1019C000808182608C93A7E2B0E0E7E2F0E0808162
:1019D0008B7F8C93A7E2B0E0E7E2F0E08081877F25
:1019E0008C93A7E2B0E0E7E2F0E080818F7E8C93F9
:1019F000A3C080E064E040E00E948F07A7E2B0E06F
:101A0000E7E2F0E080818E7F8C93A7E2B0E0E7E22E
:101A1000F0E080818D7F8C93A7E2B0E0E7E2F0E018
:101A2000808184608C93A7E2B0E0E7E2F0E08081FF
:101A3000877F8C93A7E2B0E0E7E2F0E080818F7EC1
:101A40008C937AC080E065E040E00E948F07A7E2B7
:101A5000B0E0E7E2F0E0808181608C93A7E2B0E043
:101A6000E7E2F0E080818D7F8C93A7E2B0E0E7E2CF
:101A7000F0E0808184608C93A7E2B0E0E7E2F0E0E0
:101A80008081877F8C93A7E2B0E0E7E2F0E080817D
:101A90008F7E8C9351C080E066E040E00E948F070B
:101AA000A7E2B0E0E7E2F0E080818E7F8C93A7E2CE
:101AB000B0E0E7E2F0E0808182608C93A7E2B0E0E2
:101AC000E7E2F0E0808184608C93A7E2B0E0E7E297
:101AD000F0E08081877F8C93A7E2B0E0E7E2F0E05E
:101AE00080818F7E8C9328C080E067E040E00E9478
:101AF0008F07A7E2B0E0E7E2F0E0808181608C939D
:101B0000A7E2B0E0E7E2F0E0808182608C93A7E298
:101B1000B0E0E7E2F0E0808184608C93A7E2B0E07F
:101B2000E7E2F0E08081877F8C93A7E2B0E0E7E214
:101B3000F0E080818F7E8C930F900F900F90CF916B
:101B4000DF910895DF93CF9300D00F92CDB7DEB72A
:101B500089838981282F30E03B832A838A819B8176
:101B6000009721F12A813B812130310569F5A6E2F8
:101B7000B0E0E6E2F0E0808180688C93A6E2B0E01D
:101B8000E6E2F0E0808180648C93E6E2F0E0808120
:101B9000882F90E0807190700097B9F3A6E2B0E0D2
:101BA000E6E2F0E0808180618C930EC0A6E2B0E0B6
:101BB000E6E2F0E080818F778C93A6E2B0E0E6E287
:101BC000F0E080818F7B8C930F900F900F90CF91DE
:101BD000DF910895DF93CF9300D00F92CDB7DEB79A
:101BE00089838981282F30E03B832A838A819B81E6
:101BF0008330910509F470C02A813B81243031057E
:101C000084F48A819B8181309105D1F12A813B81C5
:101C1000223031050CF04AC08A819B810097D1F0B7
:101C2000C8C02A813B812530310509F481C08A81F1
:101C30009B81853091050CF465C02A813B8126305B
:101C4000310509F48BC08A819B818730910509F4A5
:101C50009BC0AFC0A6E2B0E0E6E2F0E080818E7FFC
:101C60008C93A6E2B0E0E6E2F0E080818D7F8C9379
:101C7000A6E2B0E0E6E2F0E080818B7F8C9399C031
:101C8000A6E2B0E0E6E2F0E0808181608C93A6E21B
:101C9000B0E0E6E2F0E080818D7F8C93A6E2B0E0D8
:101CA000E6E2F0E080818B7F8C9383C0A6E2B0E017
:101CB000E6E2F0E080818E7F8C93A6E2B0E0E6E27F
:101CC000F0E0808182608C93A6E2B0E0E6E2F0E092
:101CD00080818B7F8C936DC0A6E2B0E0E6E2F0E0FD
:101CE000808181608C93A6E2B0E0E6E2F0E0808142
:101CF00082608C93A6E2B0E0E6E2F0E080818B7F28
:101D00008C9357C0A6E2B0E0E6E2F0E080818E7FDF
:101D10008C93A6E2B0E0E6E2F0E080818D7F8C93C8
:101D2000A6E2B0E0E6E2F0E0808184608C9341C0FE
:101D3000A6E2B0E0E6E2F0E0808181608C93A6E26A
:101D4000B0E0E6E2F0E080818D7F8C93A6E2B0E027
:101D5000E6E2F0E0808184608C932BC0A6E2B0E0E4
:101D6000E6E2F0E080818E7F8C93A6E2B0E0E6E2CE
:101D7000F0E0808182608C93A6E2B0E0E6E2F0E0E1
:101D8000808184608C9315C0A6E2B0E0E6E2F0E0CA
:101D9000808181608C93A6E2B0E0E6E2F0E0808191
:101DA00082608C93A6E2B0E0E6E2F0E0808184609D
:101DB0008C930F900F900F90CF91DF910895DF9348
:101DC000CF9300D00F92CDB7DEB789838981282FBA
:101DD00030E03B832A838A819B818330910509F41B
:101DE00070C02A813B812430310584F48A819B8133
:101DF00081309105D1F12A813B81223031050CF0EF
:101E00004AC08A819B810097D1F0C8C02A813B815A
:101E10002530310509F481C08A819B818530910587
:101E20000CF465C02A813B812630310509F48BC052
:101E30008A819B818730910509F49BC0AFC0A0E5E2
:101E4000B0E0E0E5F0E080818F7D8C93A0E5B0E02C
:101E5000E0E5F0E080818F7B8C93A0E5B0E0E0E5E9
:101E6000F0E080818F778C9399C0A0E5B0E0E0E549
:101E7000F0E0808180628C93A0E5B0E0E0E5F0E0E6
:101E800080818F7B8C93A0E5B0E0E0E5F0E080817D
:101E90008F778C9383C0A0E5B0E0E0E5F0E080812F
:101EA0008F7D8C93A0E5B0E0E0E5F0E08081806478
:101EB0008C93A0E5B0E0E0E5F0E080818F778C9333
:101EC0006DC0A0E5B0E0E0E5F0E0808180628C9339
:101ED000A0E5B0E0E0E5F0E0808180648C93A0E5CF
:101EE000B0E0E0E5F0E080818F778C9357C0A0E50B
:101EF000B0E0E0E5F0E080818F7D8C93A0E5B0E07C
:101F0000E0E5F0E080818F7B8C93A0E5B0E0E0E538
:101F1000F0E0808180688C9341C0A0E5B0E0E0E50E
:101F2000F0E0808180628C93A0E5B0E0E0E5F0E035
:101F300080818F7B8C93A0E5B0E0E0E5F0E08081CC
:101F400080688C932BC0A0E5B0E0E0E5F0E08081F4
:101F50008F7D8C93A0E5B0E0E0E5F0E080818064C7
:101F60008C93A0E5B0E0E0E5F0E0808180688C93A0
:101F700015C0A0E5B0E0E0E5F0E0808180628C93E0
:101F8000A0E5B0E0E0E5F0E0808180648C93A0E51E
:101F9000B0E0E0E5F0E0808180688C930F900F90D6
:101FA0000F90CF91DF910895DF93CF930F92CDB72C
:101FB000DEB7898381E00E94A20D81E00E94720B4E
:101FC00089810E94140C80E00E94D90B0F90CF9160
:101FD000DF910895DF93CF930F92CDB7DEB789835A
:101FE00081E00E94A20D83E00E94720B89810E9411
:101FF000140C80E00E94D90B0F90CF91DF910895CF
:10200000DF93CF9300D0CDB7DEB789836A83898110
:102010006A8141E00E948F0789816A8141E00E94C4
:102020008E080F900F90CF91DF910895DF93CF939B
:1020300000D0CDB7DEB789836A8389816A8141E0A8
:102040000E948F0789816A8140E00E948E080F906C
:102050000F90CF91DF910895DF93CF93CDB7DEB787
:102060006F970FB6F894DEBF0FBECDBF8D8F6E8F0A
:102070004F8F8D8D6E8D41E00E948F078D8D6E8DFF
:1020800041E00E948E088F8D882F90E0A0E0B0E0A4
:10209000BC01CD010E94F503DC01CB01898F9A8F31
:1020A000AB8FBC8F698D7A8D8B8D9C8D20E030E05D
:1020B0004AEF54E40E941702DC01CB018D8B9E8B0A
:1020C000AF8BB88F6D897E898F89988D20E030E045
:1020D00040E85FE30E94710388232CF481E090E0E4
:1020E0009C8B8B8B3FC06D897E898F89988D20E07A
:1020F0003FEF4FE757E40E94110318164CF5698D26
:102100007A8D8B8D9C8D20E030E040E251E40E947E
:102110001702DC01CB01BC01CD010E944100DC01B2
:10212000CB019C8B8B8B0FC088EC90E09A8B898BBA
:1021300089899A890197F1F79A8B898B8B899C8978
:1021400001979C8B8B8B8B899C89009769F714C0B6
:102150006D897E898F89988D0E944100DC01CB01B9
:102160009C8B8B8B8B899C89988B8F878F8598898B
:102170000197F1F7988B8F878D8D6E8D40E00E94CF
:102180008E088F8D882F90E0A0E0B0E0BC01CD01DB
:102190000E94F503DC01CB018B879C87AD87BE874E
:1021A0006B857C858D859E8520E030E04AEF54E488
:1021B0000E941702DC01CB018F839887A987BA8719
:1021C0006F81788589859A8520E030E040E85FE37B
:1021D0000E94710388232CF481E090E09E838D831C
:1021E0003FC06F81788589859A8520E03FEF4FE772
:1021F00057E40E94110318164CF56B857C858D857C
:102200009E8520E030E040E251E40E941702DC01AC
:10221000CB01BC01CD010E944100DC01CB019E83BA
:102220008D830FC088EC90E09C838B838B819C8195
:102230000197F1F79C838B838D819E8101979E830B
:102240008D838D819E81009769F714C06F81788599
:1022500089859A850E944100DC01CB019E838D8394
:102260008D819E819A83898389819A810197F1F773
:102270009A8389836F960FB6F894DEBF0FBECDBFE9
:10228000CF91DF910895DF93CF9300D0CDB7DEB724
:1022900089836A83898161E00E94920989816A81C8
:1022A0000E94410A0F900F90CF91DF910895DF9324
:1022B000CF93CDB7DEB76E970FB6F894DEBF0FBEE3
:1022C000CDBF8D8F6E8F8D8D61E00E9492098D8DB7
:1022D00061E00E94410A8E8D882F90E0A0E0B0E07E
:1022E000BC01CD010E94F503DC01CB01898F9A8FDF
:1022F000AB8FBC8F698D7A8D8B8D9C8D20E030E00B
:102300004AEF54E40E941702DC01CB018D8B9E8BB7
:10231000AF8BB88F6D897E898F89988D20E030E0F2
:1023200040E85FE30E94710388232CF481E090E091
:102330009C8B8B8B3FC06D897E898F89988D20E027
:102340003FEF4FE757E40E94110318164CF5698DD3
:102350007A8D8B8D9C8D20E030E040E251E40E942C
:102360001702DC01CB01BC01CD010E944100DC0160
:10237000CB019C8B8B8B0FC088EC90E09A8B898B68
:1023800089899A890197F1F79A8B898B8B899C8926
:1023900001979C8B8B8B8B899C89009769F714C064
:1023A0006D897E898F89988D0E944100DC01CB0167
:1023B0009C8B8B8B8B899C89988B8F878F85988939
:1023C0000197F1F7988B8F878D8D60E00E94410A0D
:1023D0008E8D882F90E0A0E0B0E0BC01CD010E947E
:1023E000F503DC01CB018B879C87AD87BE876B85AE
:1023F0007C858D859E8520E030E04AEF54E40E9484
:102400001702DC01CB018F839887A987BA876F8178
:10241000788589859A8520E030E040E85FE30E9476
:10242000710388232CF481E090E09E838D833FC06C
:102430006F81788589859A8520E03FEF4FE757E4E3
:102440000E94110318164CF56B857C858D859E8541
:1024500020E030E040E251E40E941702DC01CB01B1
:10246000BC01CD010E944100DC01CB019E838D8324
:102470000FC088EC90E09C838B838B819C810197BB
:10248000F1F79C838B838D819E8101979E838D8341
:102490008D819E81009769F714C06F817885898549
:1024A0009A850E944100DC01CB019E838D838D8142
:1024B0009E819A83898389819A810197F1F79A8312
:1024C00089836E960FB6F894DEBF0FBECDBFCF9155
:1024D000DF9108950F931F93DF93CF93CDB7DEB7AE
:1024E000C25ED0400FB6F894DEBF0FBECDBFFE0176
:1024F000EF51FF4F8083FE01EE51FF4F6083FE01DD
:10250000EF51FF4F808160E00E940010FE01EE510C
:10251000FF4F8081882F90E0A0E0B0E0BC01CD01AA
:102520000E94F503DC01CB01FE01E352FF4F8083E3
:102530009183A283B3838E0107521F4FFE01E352A2
:10254000FF4F608171818281938120E030E04AEF0A
:1025500054E40E941702DC01CB01F80180839183CF
:10256000A283B383FE01E752FF4F608171818281B4
:10257000938120E030E040E85FE30E94710388230C
:1025800044F4FE01E952FF4F81E090E091838083A3
:1025900064C0FE01E752FF4F6081718182819381A7
:1025A00020E03FEF4FE757E40E94110318160CF0AC
:1025B00043C0FE01E352FF4F6081718182819381AC
:1025C00020E030E040E251E40E941702DC01CB0140
:1025D0008E0109521F4FBC01CD010E944100DC0158
:1025E000CB01F801918380831FC0FE01EB52FF4FA6
:1025F00088EC90E091838083FE01EB52FF4F808155
:1026000091810197F1F7FE01EB52FF4F9183808397
:10261000DE01A952BF4FFE01E952FF4F8081918137
:10262000019711969C938E93FE01E952FF4F808192
:1026300091810097D1F627C08E0109521F4FFE01EC
:10264000E752FF4F60817181828193810E94410036
:10265000DC01CB01F80191838083DE01AD52BF4FD5
:10266000FE01E952FF4F808191818D939C93FE0181
:10267000ED52FF4F808191810197F1F7FE01ED52FC
:10268000FF4F91838083FE01EF51FF4F808160E017
:102690000E941610FE01EE51FF4F8081882F90E0BE
:1026A000A0E0B0E0BC01CD010E94F503DC01CB014C
:1026B000FE01E153FF4F80839183A283B3838E0198
:1026C00005531F4FFE01E153FF4F608171818281ED
:1026D000938120E030E04AEF54E40E941702DC01CD
:1026E000CB01F80180839183A283B383FE01E5537C
:1026F000FF4F608171818281938120E030E040E86A
:102700005FE30E947103882344F4FE01E753FF4F07
:1027100081E090E09183808364C0FE01E553FF4F28
:10272000608171818281938120E03FEF4FE757E420
:102730000E94110318160CF043C0FE01E153FF4F35
:10274000608171818281938120E030E040E251E438
:102750000E941702DC01CB018E0107531F4FBC0101
:10276000CD010E944100DC01CB01F80191838083FF
:102770001FC0FE01E953FF4F88EC90E091838083F6
:10278000FE01E953FF4F808191810197F1F7FE012E
:10279000E953FF4F91838083DE01A753BF4FFE01B2
:1027A000E753FF4F80819181019711969C938E93FF
:1027B000FE01E753FF4F808191810097D1F627C03A
:1027C0008E0107531F4FFE01E553FF4F608171815A
:1027D000828193810E944100DC01CB01F801918349
:1027E0008083DE01AB53BF4FFE01E753FF4F808173
:1027F00091818D939C93FE01EB53FF4F80819181DA
:102800000197F1F7FE01EB53FF4F91838083FE01A7
:10281000EF51FF4F808161E00E940010FE01EE51F8
:10282000FF4F8081882F90E0A0E0B0E0BC01CD0197
:102830000E94F503DC01CB01FE01EF53FF4F8083C3
:102840009183A283B3838E0103541F4FFE01EF5384
:10285000FF4F608171818281938120E030E04AEFF7
:1028600054E40E941702DC01CB01F80180839183BC
:10287000A283B383FE01E354FF4F608171818281A3
:10288000938120E030E040E85FE30E9471038823F9
:1028900044F4FE01E554FF4F81E090E09183808392
:1028A00064C0FE01E354FF4F608171818281938196
:1028B00020E03FEF4FE757E40E94110318160CF099
:1028C00043C0FE01EF53FF4F60817181828193818C
:1028D00020E030E040E251E40E941702DC01CB012D
:1028E0008E0105541F4FBC01CD010E944100DC0147
:1028F000CB01F801918380831FC0FE01E754FF4F95
:1029000088EC90E091838083FE01E754FF4F808143
:1029100091810197F1F7FE01E754FF4F9183808386
:10292000DE01A554BF4FFE01E554FF4F8081918128
:10293000019711969C938E93FE01E554FF4F808181
:1029400091810097D1F627C08E0105541F4FFE01DB
:10295000E354FF4F60817181828193810E94410025
:10296000DC01CB01F80191838083DE01A954BF4FC4
:10297000FE01E554FF4F808191818D939C93FE0170
:10298000E954FF4F808191810197F1F7FE01E954ED
:10299000FF4F91838083FE01EF51FF4F808161E003
:1029A0000E941610FE01EE51FF4F8081882F90E0AB
:1029B000A0E0B0E0BC01CD010E94F503DC01CB0139
:1029C000FE01ED54FF4F80839183A283B3838E0178
:1029D00001551F4FFE01ED54FF4F608171818281CF
:1029E000938120E030E04AEF54E40E941702DC01BA
:1029F000CB01F80180839183A283B383FE01E1556B
:102A0000FF4F608171818281938120E030E040E856
:102A10005FE30E947103882344F4FE01E355FF4FF6
:102A200081E090E09183808364C0FE01E155FF4F17
:102A3000608171818281938120E03FEF4FE757E40D
:102A40000E94110318160CF043C0FE01ED54FF4F15
:102A5000608171818281938120E030E040E251E425
:102A60000E941702DC01CB018E0103551F4FBC01F0
:102A7000CD010E944100DC01CB01F80191838083EC
:102A80001FC0FE01E555FF4F88EC90E091838083E5
:102A9000FE01E555FF4F808191810197F1F7FE011D
:102AA000E555FF4F91838083DE01A355BF4FFE01A3
:102AB000E355FF4F80819181019711969C938E93EE
:102AC000FE01E355FF4F808191810097D1F627C029
:102AD0008E0103551F4FFE01E155FF4F608171814B
:102AE000828193810E944100DC01CB01F801918336
:102AF0008083DE01A755BF4FFE01E355FF4F808164
:102B000091818D939C93FE01E755FF4F80819181C8
:102B10000197F1F7FE01E755FF4F91838083FE0196
:102B2000EF51FF4F808162E00E940010FE01EE51E4
:102B3000FF4F8081882F90E0A0E0B0E0BC01CD0184
:102B40000E94F503DC01CB01FE01EB55FF4F8083B2
:102B50009183A283B3838E010F551F4FFE01EB5566
:102B6000FF4F608171818281938120E030E04AEFE4
:102B700054E40E941702DC01CB01F80180839183A9
:102B8000A283B383FE01EF55FF4F60817181828183
:102B9000938120E030E040E85FE30E9471038823E6
:102BA00044F4FE01E156FF4F81E090E09183808381
:102BB00064C0FE01EF55FF4F608171818281938176
:102BC00020E03FEF4FE757E40E94110318160CF086
:102BD00043C0FE01EB55FF4F60817181828193817B
:102BE00020E030E040E251E40E941702DC01CB011A
:102BF0008E0101561F4FBC01CD010E944100DC0136
:102C0000CB01F801918380831FC0FE01E356FF4F83
:102C100088EC90E091838083FE01E356FF4F808132
:102C200091810197F1F7FE01E356FF4F9183808375
:102C3000DE01A156BF4FFE01E156FF4F8081918119
:102C4000019711969C938E93FE01E156FF4F808170
:102C500091810097D1F627C08E0101561F4FFE01CA
:102C6000EF55FF4F60817181828193810E94410005
:102C7000DC01CB01F80191838083DE01A556BF4FB3
:102C8000FE01E156FF4F808191818D939C93FE015F
:102C9000E556FF4F808191810197F1F7FE01E556DE
:102CA000FF4F91838083FE01EF51FF4F808162E0EF
:102CB0000E941610FE01EE51FF4F8081882F90E098
:102CC000A0E0B0E0BC01CD010E94F503DC01CB0126
:102CD000FE01E956FF4F80839183A283B3838E0167
:102CE0000D561F4FFE01E956FF4F608171818281B1
:102CF000938120E030E04AEF54E40E941702DC01A7
:102D0000CB01F80180839183A283B383FE01ED564A
:102D1000FF4F608171818281938120E030E040E843
:102D20005FE30E947103882344F4FE01EF56FF4FD6
:102D300081E090E09183808364C0FE01ED56FF4FF7
:102D4000608171818281938120E03FEF4FE757E4FA
:102D50000E94110318160CF043C0FE01E956FF4F04
:102D6000608171818281938120E030E040E251E412
:102D70000E941702DC01CB018E010F561F4FBC01D0
:102D8000CD010E944100DC01CB01F80191838083D9
:102D90001FC0FE01E157FF4F88EC90E091838083D4
:102DA000FE01E157FF4F808191810197F1F7FE010C
:102DB000E157FF4F91838083DE01AF56BF4FFE0185
:102DC000EF56FF4F80819181019711969C938E93CE
:102DD000FE01EF56FF4F808191810097D1F627C009
:102DE0008E010F561F4FFE01ED56FF4F608171811E
:102DF000828193810E944100DC01CB01F801918323
:102E00008083DE01A357BF4FFE01EF56FF4F808145
:102E100091818D939C93FE01E357FF4F80819181B7
:102E20000197F1F7FE01E357FF4F91838083FE0185
:102E3000EF51FF4F808163E00E940010FE01EE51D0
:102E4000FF4F8081882F90E0A0E0B0E0BC01CD0171
:102E50000E94F503DC01CB01FE01E757FF4F8083A1
:102E60009183A283B3838E010B571F4FFE01E75757
:102E7000FF4F608171818281938120E030E04AEFD1
:102E800054E40E941702DC01CB01F8018083918396
:102E9000A283B383FE01EB57FF4F60817181828172
:102EA000938120E030E040E85FE30E9471038823D3
:102EB00044F4FE01ED57FF4F81E090E09183808361
:102EC00064C0FE01EB57FF4F608171818281938165
:102ED00020E03FEF4FE757E40E94110318160CF073
:102EE00043C0FE01E757FF4F60817181828193816A
:102EF00020E030E040E251E40E941702DC01CB0107
:102F00008E010D571F4FBC01CD010E944100DC0115
:102F1000CB01F801918380831FC0FE01EF57FF4F63
:102F200088EC90E091838083FE01EF57FF4F808112
:102F300091810197F1F7FE01EF57FF4F9183808355
:102F4000DE01AD57BF4FFE01ED57FF4F80819181EC
:102F5000019711969C938E93FE01ED57FF4F808150
:102F600091810097D1F627C08E010D571F4FFE01AA
:102F7000EB57FF4F60817181828193810E944100F4
:102F8000DC01CB01F80191838083DE01A158BF4FA2
:102F9000FE01ED57FF4F808191818D939C93FE013F
:102FA000E158FF4F808191810197F1F7FE01E158CF
:102FB000FF4F91838083FE01EF51FF4F808163E0DB
:102FC0000E941610FE01EE51FF4F8081882F90E085
:102FD000A0E0B0E0BC01CD010E94F503DC01CB0113
:102FE000FE01E558FF4F80839183A283B3838E0156
:102FF00009581F4FFE01E558FF4F608171818281A2
:10300000938120E030E04AEF54E40E941702DC0193
:10301000CB01F80180839183A283B383FE01E95839
:10302000FF4F608171818281938120E030E040E830
:103030005FE30E947103882344F4FE01EB58FF4FC5
:1030400081E090E09183808364C0FE01E958FF4FE6
:10305000608171818281938120E03FEF4FE757E4E7
:103060000E94110318160CF043C0FE01E558FF4FF3
:10307000608171818281938120E030E040E251E4FF
:103080000E941702DC01CB018E010B581F4FBC01BF
:10309000CD010E944100DC01CB01F80191838083C6
:1030A0001FC0FE01ED58FF4F88EC90E091838083B4
:1030B000FE01ED58FF4F808191810197F1F7FE01EC
:1030C000ED58FF4F91838083DE01AB58BF4FFE0167
:1030D000EB58FF4F80819181019711969C938E93BD
:1030E000FE01EB58FF4F808191810097D1F627C0F8
:1030F0008E010B581F4FFE01E958FF4F608171810F
:10310000828193810E944100DC01CB01F80191830F
:103110008083DE01AF58BF4FFE01EB58FF4F808127
:1031200091818D939C93FE01EF58FF4F8081918197
:103130000197F1F7FE01EF58FF4F91838083FE0165
:10314000EF51FF4F808164E00E940010FE01EE51BC
:10315000FF4F8081882F90E0A0E0B0E0BC01CD015E
:103160000E94F503DC01CB01FE01E359FF4F808390
:103170009183A283B3838E0107591F4FFE01E35948
:10318000FF4F608171818281938120E030E04AEFBE
:1031900054E40E941702DC01CB01F8018083918383
:1031A000A283B383FE01E759FF4F60817181828161
:1031B000938120E030E040E85FE30E9471038823C0
:1031C00044F4FE01E959FF4F81E090E09183808350
:1031D00064C0FE01E759FF4F608171818281938154
:1031E00020E03FEF4FE757E40E94110318160CF060
:1031F00043C0FE01E359FF4F608171818281938159
:1032000020E030E040E251E40E941702DC01CB01F3
:103210008E0109591F4FBC01CD010E944100DC0104
:10322000CB01F801918380831FC0FE01EB59FF4F52
:1032300088EC90E091838083FE01EB59FF4F808101
:1032400091810197F1F7FE01EB59FF4F9183808344
:10325000DE01A959BF4FFE01E959FF4F80819181DD
:10326000019711969C938E93FE01E959FF4F80813F
:1032700091810097D1F627C08E0109591F4FFE0199
:10328000E759FF4F60817181828193810E944100E3
:10329000DC01CB01F80191838083DE01AD59BF4F82
:1032A000FE01E959FF4F808191818D939C93FE012E
:1032B000ED59FF4F808191810197F1F7FE01ED59A2
:1032C000FF4F91838083FE01EF51FF4F808164E0C7
:1032D0000E941610FE01EE51FF4F8081882F90E072
:1032E000A0E0B0E0BC01CD010E94F503DC01CB0100
:1032F000FE01E15AFF4F80839183A283B3838E0145
:10330000055A1F4FFE01E15AFF4F60817181828192
:10331000938120E030E04AEF54E40E941702DC0180
:10332000CB01F80180839183A283B383FE01E55A28
:10333000FF4F608171818281938120E030E040E81D
:103340005FE30E947103882344F4FE01E75AFF4FB4
:1033500081E090E09183808364C0FE01E55AFF4FD5
:10336000608171818281938120E03FEF4FE757E4D4
:103370000E94110318160CF043C0FE01E15AFF4FE2
:10338000608171818281938120E030E040E251E4EC
:103390000E941702DC01CB018E01075A1F4FBC01AE
:1033A000CD010E944100DC01CB01F80191838083B3
:1033B0001FC0FE01E95AFF4F88EC90E091838083A3
:1033C000FE01E95AFF4F808191810197F1F7FE01DB
:1033D000E95AFF4F91838083DE01A75ABF4FFE0158
:1033E000E75AFF4F80819181019711969C938E93AC
:1033F000FE01E75AFF4F808191810097D1F627C0E7
:103400008E01075A1F4FFE01E55AFF4F60817181FF
:10341000828193810E944100DC01CB01F8019183FC
:103420008083DE01AB5ABF4FFE01E75AFF4F808118
:1034300091818D939C93FE01EB5AFF4F8081918186
:103440000197F1F7FE01EB5AFF4F91838083FE0154
:10345000EF51FF4F808165E00E940010FE01EE51A8
:10346000FF4F8081882F90E0A0E0B0E0BC01CD014B
:103470000E94F503DC01CB01FE01EF5AFF4F808370
:103480009183A283B3838E01035B1F4FFE01EF5A2A
:10349000FF4F608171818281938120E030E04AEFAB
:1034A00054E40E941702DC01CB01F8018083918370
:1034B000A283B383FE01E35BFF4F60817181828150
:1034C000938120E030E040E85FE30E9471038823AD
:1034D00044F4FE01E55BFF4F81E090E0918380833F
:1034E00064C0FE01E35BFF4F608171818281938143
:1034F00020E03FEF4FE757E40E94110318160CF04D
:1035000043C0FE01EF5AFF4F608171818281938138
:1035100020E030E040E251E40E941702DC01CB01E0
:103520008E01055B1F4FBC01CD010E944100DC01F3
:10353000CB01F801918380831FC0FE01E75BFF4F41
:1035400088EC90E091838083FE01E75BFF4F8081F0
:1035500091810197F1F7FE01E75BFF4F9183808333
:10356000DE01A55BBF4FFE01E55BFF4F80819181CE
:10357000019711969C938E93FE01E55BFF4F80812E
:1035800091810097D1F627C08E01055B1F4FFE0188
:10359000E35BFF4F60817181828193810E944100D2
:1035A000DC01CB01F80191838083DE01A95BBF4F71
:1035B000FE01E55BFF4F808191818D939C93FE011D
:1035C000E95BFF4F808191810197F1F7FE01E95B93
:1035D000FF4F91838083FE01EF51FF4F808165E0B3
:1035E0000E941610FE01EE51FF4F8081882F90E05F
:1035F000A0E0B0E0BC01CD010E94F503DC01CB01ED
:10360000FE01ED5BFF4F80839183A283B3838E0124
:10361000015C1F4FFE01ED5BFF4F60817181828174
:10362000938120E030E04AEF54E40E941702DC016D
:10363000CB01F80180839183A283B383FE01FF96BF
:10364000608171818281938120E030E040E85FE316
:103650000E94710388232CF481E090E09EAF8DAF2F
:1036600046C0FE01FF96608171818281938120E0D6
:103670003FEF4FE757E40E941103181664F5FE016F
:10368000ED5BFF4F608171818281938120E030E0AA
:1036900040E251E40E941702DC01CB01BC01CD01E4
:1036A0000E944100DC01CB019EAF8DAF0FC088ECC2
:1036B00090E09CAF8BAF8BAD9CAD0197F1F79CAFC9
:1036C0008BAF8DAD9EAD01979EAF8DAF8DAD9EAD95
:1036D000009769F716C0FE01FF96608171818281B3
:1036E00093810E944100DC01CB019EAF8DAF8DAD77
:1036F0009EAD9AAF89AF89AD9AAD0197F1F79AAFB8
:1037000089AFFE01EF51FF4F808166E00E940010FB
:10371000FE01EE51FF4F8081882F90E0A0E0B0E0E5
:10372000BC01CD010E94F503DC01CB018DAB9EAB4A
:10373000AFABB8AF6DA97EA98FA998AD20E030E0FE
:103740004AEF54E40E941702DC01CB0189AB9AAB2B
:10375000ABABBCAB69A97AA98BA99CA920E030E0EE
:1037600040E85FE30E94710388232CF481E090E03D
:1037700098AB8FA73FC069A97AA98BA99CA920E023
:103780003FEF4FE757E40E94110318164CF56DA95F
:103790007EA98FA998AD20E030E040E251E40E947C
:1037A0001702DC01CB01BC01CD010E944100DC010C
:1037B000CB0198AB8FA70FC088EC90E09EA78DA798
:1037C0008DA59EA50197F1F79EA78DA78FA598A916
:1037D000019798AB8FA78FA598A9009769F714C098
:1037E00069A97AA98BA99CA90E944100DC01CB019F
:1037F00098AB8FA78FA598A99CA78BA78BA59CA5F5
:103800000197F1F79CA78BA7FE01EF51FF4F808135
:1038100066E00E941610FE01EE51FF4F8081882F56
:1038200090E0A0E0B0E0BC01CD010E94F503DC0116
:10383000CB018FA398A7A9A7BAA76FA178A589A53F
:103840009AA520E030E04AEF54E40E941702DC0120
:10385000CB018BA39CA3ADA3BEA36BA17CA18DA127
:103860009EA120E030E040E85FE30E9471038823DE
:103870002CF481E090E09AA389A33FC06BA17CA1C6
:103880008DA19EA120E03FEF4FE757E40E94110376
:1038900018164CF56FA178A589A59AA520E030E00F
:1038A00040E251E40E941702DC01CB01BC01CD01D2
:1038B0000E944100DC01CB019AA389A30FC088ECD0
:1038C00090E098A38F8F8F8D98A10197F1F798A31F
:1038D0008F8F89A19AA101979AA389A389A19AA1FF
:1038E000009769F714C06BA17CA18DA19EA10E94D5
:1038F0004100DC01CB019AA389A389A19AA19E8FE3
:103900008D8F8D8D9E8D0197F1F79E8F8D8FFE018E
:10391000EF51FF4F808167E00E940010FE01EE51E1
:10392000FF4F8081882F90E0A0E0B0E0BC01CD0186
:103930000E94F503DC01CB01898F9A8FAB8FBC8F7E
:10394000698D7A8D8B8D9C8D20E030E04AEF54E4B8
:103950000E941702DC01CB018D8B9E8BAF8BB88F41
:103960006D897E898F89988D20E030E040E85FE3A3
:103970000E94710388232CF481E090E09C8B8B8B58
:103980003FC06D897E898F89988D20E03FEF4FE79A
:1039900057E40E94110318164CF5698D7A8D8B8DB2
:1039A0009C8D20E030E040E251E40E941702DC01EF
:1039B000CB01BC01CD010E944100DC01CB019C8BFD
:1039C0008B8B0FC088EC90E09A8B898B89899A89C0
:1039D0000197F1F79A8B898B8B899C8901979C8B36
:1039E0008B8B8B899C89009769F714C06D897E89C0
:1039F0008F89988D0E944100DC01CB019C8B8B8BC1
:103A00008B899C89988B8F878F8598890197F1F78F
:103A1000988B8F87FE01EF51FF4F808167E00E94F6
:103A20001610FE01EE51FF4F8081882F90E0A0E03C
:103A3000B0E0BC01CD010E94F503DC01CB018B8716
:103A40009C87AD87BE876B857C858D859E8520E0B4
:103A500030E04AEF54E40E941702DC01CB018F836F
:103A60009887A987BA876F81788589859A8520E0AC
:103A700030E040E85FE30E94710388232CF481E08A
:103A800090E09E838D833FC06F81788589859A857C
:103A900020E03FEF4FE757E40E94110318164CF562
:103AA0006B857C858D859E8520E030E040E251E489
:103AB0000E941702DC01CB01BC01CD010E94410034
:103AC000DC01CB019E838D830FC088EC90E09C834A
:103AD0008B838B819C810197F1F79C838B838D81F4
:103AE0009E8101979E838D838D819E81009769F7CA
:103AF00014C06F81788589859A850E944100DC0118
:103B0000CB019E838D838D819E819A838983898158
:103B10009A810197F1F79A838983CE51DF4F0FB6CF
:103B2000F894DEBF0FBECDBFCF91DF911F910F91F3
:103B30000895DF93CF93CDB7DEB761970FB6F894B2
:103B4000DEBF0FBECDBF8F87688B498B8F8560E04E
:103B500041E00E948E088F8561E040E00E948E085F
:103B6000888969890E94410A8F8562E041E00E944C
:103B70008E0880E090E0A0E0B0E48B879C87AD8762
:103B8000BE876B857C858D859E8520E030E04AEF81
:103B900054E40E941702DC01CB018F839887A98728
:103BA000BA876F81788589859A8520E030E040E882
:103BB0005FE30E94710388232CF481E090E09E83F0
:103BC0008D833FC06F81788589859A8520E03FEF9E
:103BD0004FE757E40E94110318164CF56B857C855E
:103BE0008D859E8520E030E040E251E40E9417027E
:103BF000DC01CB01BC01CD010E944100DC01CB0105
:103C00009E838D830FC088EC90E09C838B838B8197
:103C10009C810197F1F79C838B838D819E81019715
:103C20009E838D838D819E81009769F714C06F817B
:103C3000788589859A850E944100DC01CB019E83AD
:103C40008D838D819E819A83898389819A81019751
:103C5000F1F79A8389838F8562E040E00E948E08A5
:103C600061960FB6F894DEBF0FBECDBFCF91DF9146
:103C70000895DF93CF93CDB7DEB761970FB6F89471
:103C8000DEBF0FBECDBF8F87688B498B8F8560E00D
:103C900040E00E948E088F8561E040E00E948E081F
:103CA000888969890E94410A8F8562E041E00E940B
:103CB0008E0880E090E0A0E0B0E48B879C87AD8721
:103CC000BE876B857C858D859E8520E030E04AEF40
:103CD00054E40E941702DC01CB018F839887A987E7
:103CE000BA876F81788589859A8520E030E040E841
:103CF0005FE30E94710388232CF481E090E09E83AF
:103D00008D833FC06F81788589859A8520E03FEF5C
:103D10004FE757E40E94110318164CF56B857C851C
:103D20008D859E8520E030E040E251E40E9417023C
:103D3000DC01CB01BC01CD010E944100DC01CB01C3
:103D40009E838D830FC088EC90E09C838B838B8156
:103D50009C810197F1F79C838B838D819E810197D4
:103D60009E838D838D819E81009769F714C06F813A
:103D7000788589859A850E944100DC01CB019E836C
:103D80008D838D819E819A83898389819A81019710
:103D9000F1F79A8389838F8562E040E00E948E0864
:103DA00061960FB6F894DEBF0FBECDBFCF91DF9105
:103DB0000895DF93CF9300D0CDB7DEB789836A83B0
:103DC000898160E041E00E948F07898161E041E0E4
:103DD0000E948F07898162E041E00E948F078A81FB
:103DE00061E00E9492090F900F90CF91DF910895AA
:103DF000DF93CF93CDB7DEB7AC970FB6F894DEBFA5
:103E00000FBECDBF8BA76CA780E090E0A0E2B2E42C
:103E10008FA398A7A9A7BAA76FA178A589A59AA5E6
:103E200020E030E04AEF54E40E941702DC01CB01AD
:103E30008BA39CA3ADA3BEA36BA17CA18DA19EA1CE
:103E400020E030E040E85FE30E94710388232CF417
:103E500081E090E09AA389A33FC06BA17CA18DA1D2
:103E60009EA120E03FEF4FE757E40E941103181690
:103E70004CF56FA178A589A59AA520E030E040E235
:103E800051E40E941702DC01CB01BC01CD010E946C
:103E90004100DC01CB019AA389A30FC088EC90E01C
:103EA00098A38F8F8F8D98A10197F1F798A38F8F8B
:103EB00089A19AA101979AA389A389A19AA10097A0
:103EC00069F714C06BA17CA18DA19EA10E94410045
:103ED000DC01CB019AA389A389A19AA19E8F8D8F22
:103EE0008D8D9E8D0197F1F79E8F8D8F8BA56CA583
:103EF00048E30E94391E80E090E0A0E2B2E4898F9E
:103F00009A8FAB8FBC8F698D7A8D8B8D9C8D20E0C5
:103F100030E04AEF54E40E941702DC01CB018D8BA4
:103F20009E8BAF8BB88F6D897E898F89988D20E0AD
:103F300030E040E85FE30E94710388232CF481E0C5
:103F400090E09C8B8B8B3FC06D897E898F89988D8B
:103F500020E03FEF4FE757E40E94110318164CF59D
:103F6000698D7A8D8B8D9C8D20E030E040E251E4AC
:103F70000E941702DC01CB01BC01CD010E9441006F
:103F8000DC01CB019C8B8B8B0FC088EC90E09A8B73
:103F9000898B89899A890197F1F79A8B898B8B890B
:103FA0009C8901979C8B8B8B8B899C89009769F7E7
:103FB00014C06D897E898F89988D0E944100DC0133
:103FC000CB019C8B8B8B8B899C89988B8F878F8562
:103FD00098890197F1F7988B8F878BA56CA541E0A5
:103FE0000E94391E80E090E0A0E2B2E48B879C87BB
:103FF000AD87BE876B857C858D859E8520E030E012
:104000004AEF54E40E941702DC01CB018F839887AA
:10401000A987BA876F81788589859A8520E030E005
:1040200040E85FE30E94710388232CF481E090E074
:104030009E838D833FC06F81788589859A8520E036
:104040003FEF4FE757E40E94110318164CF56B85BC
:104050007C858D859E8520E030E040E251E40E9421
:104060001702DC01CB01BC01CD010E944100DC0143
:10407000CB019E838D830FC088EC90E09C838B8363
:104080008B819C810197F1F79C838B838D819E812D
:1040900001979E838D838D819E81009769F714C05F
:1040A0006F81788589859A850E944100DC01CB016A
:1040B0009E838D838D819E819A83898389819A8154
:1040C0000197F1F79A8389838BA56CA54CE00E9438
:1040D000391EAC960FB6F894DEBF0FBECDBFCF91A0
:1040E000DF910895DF93CF9300D000D00F92CDB72A
:1040F000DEB78A836B835D834C83198211C089810B
:10410000282F30E08C819D81FC01E20FF31F90810C
:104110008A816B81492F0E94991D89818F5F8983D4
:104120008981282F30E08C819D81FC01E20FF31FF3
:104130008081882321F70F900F900F900F900F90A0
:10414000CF91DF910895DF93CF930F92CDB7DEB774
:1041500089830F90CF91DF910895DF93CF93CDB7EF
:10416000DEB7CF91DF910895DF93CF930F92CDB754
:10417000DEB7898389816FE00E949209898160EFAF
:104180000E94410A0F90CF91DF910895DF93CF9362
:10419000CDB7DEB7A8970FB6F894DEBF0FBECDBF80
:1041A000CE0143969DA38CA3EFE8F1E0FFA3EEA31D
:1041B000F0E1F8A7EEA1FFA100808EA19FA10196DA
:1041C0009FA38EA3ECA1FDA100828CA19DA10196CD
:1041D0009DA38CA398A5915098A7E8A5EE2351F72D
:1041E0001A8A198AAEC08989982F9C5F81E0692F4D
:1041F00041E00E948E0880E090E0A8E4B2E48B8762
:104200009C87AD87BE876B857C858D859E8520E0EC
:1042100030E04AEF54E40E941702DC01CB018F83A7
:104220009887A987BA876F81788589859A8520E0E4
:1042300030E040E85FE30E94710388232CF481E0C2
:1042400090E09E838D833FC06F81788589859A85B4
:1042500020E03FEF4FE757E40E94110318164CF59A
:104260006B857C858D859E8520E030E040E251E4C1
:104270000E941702DC01CB01BC01CD010E9441006C
:10428000DC01CB019E838D830FC088EC90E09C8382
:104290008B838B819C810197F1F79C838B838D812C
:1042A0009E8101979E838D838D819E81009769F702
:1042B00014C06F81788589859A850E944100DC0150
:1042C000CB019E838D838D819E819A838983898191
:1042D0009A810197F1F79A83898384E090E0988B23
:1042E0008F8725C0E6E3F0E080819989692F0E94DD
:1042F000F40A8823B9F429893A898F859889AC0111
:1043000044505040220F331F220F331FCE0101961D
:10431000820F931F840F951FFC01729680818BA3DF
:104320008BA115C08F8598890196988B8F878F8573
:10433000988988309105B4F289899A8901969A8B77
:10434000898B89899A89843091050CF44CCFA89681
:104350000FB6F894DEBF0FBECDBFCF91DF910895A9
:10436000DF93CF9300D000D00F92CDB7DEB7898313
:104370008981282F30E03C832B838B819C8188307E
:10438000910509F470C02B813C81293031055CF521
:104390008B819C818430910509F459C02B813C812B
:1043A000253031059CF48B819C818230910509F484
:1043B00048C02B813C81233031050CF045C08B81F6
:1043C0009C818130910509F439C068C02B813C8102
:1043D0002630310509F441C08B819C8187309105DD
:1043E0000CF03EC037C02B813C812C30310509F4E4
:1043F00046C08B819C818D3091055CF42B813C8182
:104400002A303105B1F18B819C818B309105A4F567
:104410002DC02B813C812E303105B9F18B819C81DF
:104420008E3091057CF12B813C812F30310581F15B
:104430008B819C818031910571F130C091E39A8329
:104440002EC022E32A832BC033E33A8328C081E4C1
:104450008A8325C094E39A8322C025E32A831FC060
:1044600036E33A831CC082E48A8319C097E39A83B7
:1044700016C028E32A8313C039E33A8310C083E4CB
:104480008A830DC09AE29A830AC020E32A8307C078
:1044900033E23A8304C084E48A8301C002C09A8173
:1044A0009D838D810F900F900F900F900F90CF9163
:1044B000DF910895DF93CF9300D0CDB7DEB7898326
:1044C0006A8389816A8140E00E948F0789816A81BD
:1044D00041E00E948E080F900F90CF91DF910895D8
:1044E000DF93CF9300D0CDB7DEB789836A8389810C
:1044F0006A810E94F40A0F900F90CF91DF91089586
:10450000DF93CF9300D0CDB7DEB789836A838981EB
:104510006A8140E00E948F0789816A8140E00E94A1
:104520008E080F900F90CF91DF910895DF93CF9376
:104530000F92CDB7DEB78983898161E00E9492092D
:104540000F90CF91DF910895DF93CF9300D00F921A
:10455000CDB7DEB789836A834B838A81813091F43A
:104560008B81813031F4898167E041E00E948E08BF
:104570001DC08B818823D1F4898167E040E00E94CF
:104580008E0814C08A81823089F48B81813031F4A5
:10459000898167E040E00E948E0808C08B818823F3
:1045A00029F4898167E041E00E948E080F900F9006
:1045B0000F90CF91DF910895DF93CF93CDB7DEB702
:1045C000A1970FB6F894DEBF0FBECDBF8D8B6E8B5B
:1045D0004F8BCE010196998F888FE9EAF1E0FB8F2E
:1045E000EA8FFAE0FC8FEA8DFB8D00808A8D9B8D2F
:1045F00001969B8F8A8FE88DF98D0082888D998D29
:104600000196998F888F9C8D91509C8FEC8DEE2315
:1046100051F7CE010B969E8F8D8FEFE9F1E0F8A355
:10462000EF8FFAE0F9A3EF8DF8A100808F8D98A1AC
:10463000019698A38F8FED8DFE8D00828D8D9E8DBE
:1046400001969E8F8D8F99A1915099A3E9A1EE2398
:1046500051F78E89823069F48F89282F30E0CE019E
:104660000196FC01E20FF31F90818D89692F0E9452
:10467000410A8E89813069F48F89282F30E0CE017C
:104680000B96FC01E20FF31F90818D89692F0E9428
:10469000410AA1960FB6F894DEBF0FBECDBFCF91F1
:1046A000DF910895DF93CF93CDB7DEB7E2970FB6D2
:1046B000F894DEBF0FBECDBF8FA368A7CE0143968F
:1046C0009AA789A7EDEBF1E0FCA7EBA7FAE0FDA71D
:1046D000EBA5FCA500808BA59CA501969CA78BA7AC
:1046E000E9A5FAA5008289A59AA501969AA789A7A6
:1046F0009DA591509DA7EDA5EE2351F7CE014D96B6
:104700009FA78EA7E3EBF1E0F9ABE8ABFAE0FAABD9
:10471000E8A9F9A9008088A999A9019699AB88AB65
:10472000EEA5FFA500828EA59FA501969FA78EA747
:104730009AA991509AABEAA9EE2351F788A5823045
:1047400009F08CC01A8A198A83C029893A89CE0156
:104750004396FC01E20FF31F90818FA1692F0E9405
:10476000410A80E090E0AAE7B4E48B879C87AD879C
:10477000BE876B857C858D859E8520E030E04AEF85
:1047800054E40E941702DC01CB018F839887A9872C
:10479000BA876F81788589859A8520E030E040E886
:1047A0005FE30E94710388232CF481E090E09E83F4
:1047B0008D833FC06F81788589859A8520E03FEFA2
:1047C0004FE757E40E94110318164CF56B857C8562
:1047D0008D859E8520E030E040E251E40E94170282
:1047E000DC01CB01BC01CD010E944100DC01CB0109
:1047F0009E838D830FC088EC90E09C838B838B819C
:104800009C810197F1F79C838B838D819E81019719
:104810009E838D838D819E81009769F714C06F817F
:10482000788589859A850E944100DC01CB019E83B1
:104830008D838D819E819A83898389819A81019755
:10484000F1F79A83898389899A8901969A8B898B52
:1048500089899A898A3091050CF477CF88A58130AF
:10486000C9F4188A1F8611C02F853889CE014D964C
:10487000FC01E20FF31F90818FA1692F0E94410A72
:104880008F8598890196988B8F878F8598898A3034
:10489000910554F3E2960FB6F894DEBF0FBECDBF7C
:1048A000CF91DF910895DF93CF93CDB7DEB72E97E9
:1048B0000FB6F894DEBF0FBECDBF82E063E00E946A
:1048C000D91E82E063E00E94F81E82E063E040E8C7
:1048D0000E94391E20E630E082E063E0A9010E94D8
:1048E000722080E00E94EA0F982F82E063E0492F57
:1048F0000E94991D80E090E0A8ECB2E48B879C8731
:10490000AD87BE876B857C858D859E8520E030E0F8
:104910004AEF54E40E941702DC01CB018F83988791
:10492000A987BA876F81788589859A8520E030E0EC
:1049300040E85FE30E94710388232CF481E090E05B
:104940009E838D833FC06F81788589859A8520E01D
:104950003FEF4FE757E40E94110318164CF56B85A3
:104960007C858D859E8520E030E040E251E40E9408
:104970001702DC01CB01BC01CD010E944100DC012A
:10498000CB019E838D830FC088EC90E09C838B834A
:104990008B819C810197F1F79C838B838D819E8114
:1049A00001979E838D838D819E81009769F714C046
:1049B0006F81788589859A850E944100DC01CB0151
:1049C0009E838D838D819E819A83898389819A813B
:1049D0000197F1F79A83898382E063E041E00E94C6
:1049E000391E6FCFDF93CF93CDB7DEB782E060E0A3
:1049F00048EE0E942C10FACFDF93CF93CDB7DEB7ED
:104A00006C970FB6F894DEBF0FBECDBF81E061E0BA
:104A10000E94431180E090E8ABEBB4E4898F9A8F59
:104A2000AB8FBC8F698D7A8D8B8D9C8D20E030E0B3
:104A30004AEF54E40E941702DC01CB018D8B9E8B60
:104A4000AF8BB88F6D897E898F89988D20E030E09B
:104A500040E85FE30E94710388232CF481E090E03A
:104A60009C8B8B8B3FC06D897E898F89988D20E0D0
:104A70003FEF4FE757E40E94110318164CF5698D7C
:104A80007A8D8B8D9C8D20E030E040E251E40E94D5
:104A90001702DC01CB01BC01CD010E944100DC0109
:104AA000CB019C8B8B8B0FC088EC90E09A8B898B11
:104AB00089899A890197F1F79A8B898B8B899C89CF
:104AC00001979C8B8B8B8B899C89009769F714C00D
:104AD0006D897E898F89988D0E944100DC01CB0110
:104AE0009C8B8B8B8B899C89988B8F878F859889E2
:104AF0000197F1F7988B8F8781E060E00E94431166
:104B000080E090E8ABEBB4E48B879C87AD87BE87F1
:104B10006B857C858D859E8520E030E04AEF54E4EE
:104B20000E941702DC01CB018F839887A987BA877F
:104B30006F81788589859A8520E030E040E85FE3E1
:104B40000E94710388232CF481E090E09E838D8382
:104B50003FC06F81788589859A8520E03FEF4FE7D8
:104B600057E40E94110318164CF56B857C858D85E2
:104B70009E8520E030E040E251E40E941702DC0113
:104B8000CB01BC01CD010E944100DC01CB019E8321
:104B90008D830FC088EC90E09C838B838B819C81FC
:104BA0000197F1F79C838B838D819E8101979E8372
:104BB0008D838D819E81009769F728CF6F817885DD
:104BC00089859A850E944100DC01CB019E838D83FB
:104BD0008D819E819A83898389819A810197F1F7DA
:104BE0009A83898313CFDF93CF930F92CDB7DEB72C
:104BF00082E060E00E945A2281E060E00E94702220
:104C0000898386E060E00E947022882329F483E093
:104C100060E00E940010F0CF83E060E00E94161078
:104C2000EBCFDF93CF93CDB7DEB781E06CEB0E9483
:104C30006A12FBCF0F931F93DF93CF93CDB7DEB7ED
:104C4000C954D0400FB6F894DEBF0FBECDBF80E090
:104C500060E00E94802280E061E00E94802280E08B
:104C600062E00E94802284E060E00E947022FE01E7
:104C7000E75BFF4F8083FE01ED5BFF4F80E090E03C
:104C8000A8E4B2E480839183A283B3838E01015CA4
:104C90001F4FFE01ED5BFF4F608171818281938127
:104CA00020E030E04AEF54E40E941702DC01CB011F
:104CB000F80180839183A283B383FE01FF96608114
:104CC00071818281938120E030E040E85FE30E94BF
:104CD000710388232CF481E090E09EAF8DAF46C035
:104CE000FE01FF96608171818281938120E03FEF18
:104CF0004FE757E40E941103181664F5FE01ED5BBF
:104D0000FF4F608171818281938120E030E040E239
:104D100051E40E941702DC01CB01BC01CD010E94CD
:104D20004100DC01CB019EAF8DAF0FC088EC90E05D
:104D30009CAF8BAF8BAD9CAD0197F1F79CAF8BAF68
:104D40008DAD9EAD01979EAF8DAF8DAD9EAD0097A1
:104D500069F716C0FE01FF9660817181828193819F
:104D60000E944100DC01CB019EAF8DAF8DAD9EADA9
:104D70009AAF89AF89AD9AAD0197F1F79AAF89AF34
:104D800084E061E00E947022FE01E85BFF4F8083B7
:104D900080E090E0A8E4B2E48DAB9EABAFABB8AFDF
:104DA0006DA97EA98FA998AD20E030E04AEF54E4C8
:104DB0000E941702DC01CB0189AB9AABABABBCAB59
:104DC00069A97AA98BA99CA920E030E040E85FE3BB
:104DD0000E94710388232CF481E090E098AB8FA7A8
:104DE0003FC069A97AA98BA99CA920E03FEF4FE7B2
:104DF00057E40E94110318164CF56DA97EA98FA9DE
:104E000098AD20E030E040E251E40E941702DC015E
:104E1000CB01BC01CD010E944100DC01CB0198AB6C
:104E20008FA70FC088EC90E09EA78DA78DA59EA5AB
:104E30000197F1F79EA78DA78FA598A9019798AB29
:104E40008FA78FA598A9009769F714C069A97AA9B7
:104E50008BA99CA90E944100DC01CB0198AB8FA7D4
:104E60008FA598A99CA78BA78BA59CA50197F1F767
:104E70009CA78BA784E062E00E947022FE01E95BA0
:104E8000FF4F808380E090E0A8E4B2E48FA398A76E
:104E9000A9A7BAA76FA178A589A59AA520E030E0B7
:104EA0004AEF54E40E941702DC01CB018BA39CA3C0
:104EB000ADA3BEA36BA17CA18DA19EA120E030E09B
:104EC00040E85FE30E94710388232CF481E090E0C6
:104ED0009AA389A33FC06BA17CA18DA19EA120E0D4
:104EE0003FEF4FE757E40E94110318164CF56FA1EE
:104EF00078A589A59AA520E030E040E251E40E941F
:104F00001702DC01CB01BC01CD010E944100DC0194
:104F1000CB019AA389A30FC088EC90E098A38F8F50
:104F20008F8D98A10197F1F798A38F8F89A19AA1EE
:104F300001979AA389A389A19AA1009769F714C040
:104F40006BA17CA18DA19EA10E944100DC01CB013F
:104F50009AA389A389A19AA19E8F8D8F8D8D9E8DF5
:104F60000197F1F79E8F8D8FFE01E75BFF4F8081E8
:104F7000813029F481E060E00E94001004C081E0EB
:104F800060E00E941610FE01E85BFF4F80818130D7
:104F900009F077C081E061E00E94001080E090E0BD
:104FA000AAEFB3E4898F9A8FAB8FBC8F698D7A8D0E
:104FB0008B8D9C8D20E030E04AEF54E40E94170274
:104FC000DC01CB018D8B9E8BAF8BB88F6D897E8979
:104FD0008F89988D20E030E040E85FE30E94710304
:104FE00088232CF481E090E09C8B8B8B3FC06D89F3
:104FF0007E898F89988D20E03FEF4FE757E40E942C
:10500000110318164CF5698D7A8D8B8D9C8D20E0DF
:1050100030E040E251E40E941702DC01CB01BC0108
:10502000CD010E944100DC01CB019C8B8B8B0FC01A
:1050300088EC90E09A8B898B89899A890197F1F79E
:105040009A8B898B8B899C8901979C8B8B8B8B8905
:105050009C89009769F719C06D897E898F89988D21
:105060000E944100DC01CB019C8B8B8B8B899C893E
:10507000988B8F878F8598890197F1F7988B8F8709
:1050800004C081E061E00E941610FE01E95BFF4F61
:105090008081813009F077C081E062E00E940010D9
:1050A00080E090E0AAEFB3E48B879C87AD87BE8752
:1050B0006B857C858D859E8520E030E04AEF54E449
:1050C0000E941702DC01CB018F839887A987BA87DA
:1050D0006F81788589859A8520E030E040E85FE33C
:1050E0000E94710388232CF481E090E09E838D83DD
:1050F0003FC06F81788589859A8520E03FEF4FE733
:1051000057E40E94110318164CF56B857C858D853C
:105110009E8520E030E040E251E40E941702DC016D
:10512000CB01BC01CD010E944100DC01CB019E837B
:105130008D830FC088EC90E09C838B838B819C8156
:105140000197F1F79C838B838D819E8101979E83CC
:105150008D838D819E81009769F785CD6F817885DC
:1051600089859A850E944100DC01CB019E838D8355
:105170008D819E819A83898389819A810197F1F734
:105180009A83898370CD81E062E00E9416106BCD16
:10519000DF93CF930F92CDB7DEB7898382E063E0D0
:1051A0000E94D91E82E063E00E94F81E82E063E064
:1051B00040E80E94391E82E063E044E40E94991DA9
:1051C00082E063E041E00E94391EECCFDF93CF9391
:1051D0000F92CDB7DEB7898382E063E00E94D91ECB
:1051E00082E063E00E94F81E82E063E040E80E94F3
:1051F000391E8981882F90E09C0182E063E0A9013B
:105200000E94722082E063E041E00E94391EE8CFF4
:10521000DF93CF9300D000D00F92CDB7DEB7898354
:105220008981282F30E03C832B838B819C818530C2
:10523000910509F459C02B813C812630310504F5D4
:105240008B819C818230910509F445C02B813C8182
:105250002330310554F48B819C810097B1F12B816F
:105260003C8121303105A1F154C08B819C81833078
:105270009105A1F12B813C812430310591F149C088
:105280008B819C8188309105C1F12B813C81293033
:1052900031055CF48B819C818630910541F12B8135
:1052A0003C812730310531F134C08B819C818A30BB
:1052B000910549F12B813C812A3031050CF18B811C
:1052C0009C818B30910511F124C090E39A8322C018
:1052D00021E32A831FC032E33A831CC083E38A831D
:1052E00019C094E39A8316C025E32A8313C036E3DA
:1052F0003A8310C087E38A830DC098E39A830AC07B
:1053000029E32A8307C030E33A8304C081E38A8318
:1053100001C002C09A819D838D810F900F900F90E4
:105320000F900F90CF91DF910895DF93CF93CDB77A
:10533000DEB72F970FB6F894DEBF0FBECDBF82E069
:1053400063E00E94D91E1F8682E063E00E94F81E7F
:1053500082E063E040E80E94391E2DE630E082E002
:1053600063E0A9010E94722082E063E040EC0E94A9
:10537000391E1F867EC08F850E940829982F82E0E3
:1053800063E0492F0E94991D80E090E0AAEFB3E40A
:105390008B879C87AD87BE876B857C858D859E8539
:1053A00020E030E04AEF54E40E941702DC01CB0118
:1053B0008F839887A987BA876F81788589859A8531
:1053C00020E030E040E85FE30E94710388232CF482
:1053D00081E090E09E838D833FC06F8178858985D1
:1053E0009A8520E03FEF4FE757E40E94110318161B
:1053F0004CF56B857C858D859E8520E030E040E214
:1054000051E40E941702DC01CB01BC01CD010E94D6
:105410004100DC01CB019E838D830FC088EC90E0BE
:105420009C838B838B819C810197F1F79C838B8379
:105430008D819E8101979E838D838D819E810097B2
:1054400069F714C06F81788589859A850E9441002B
:10545000DC01CB019E838D838D819E819A8389831C
:1054600089819A810197F1F79A8389838F858F5F6C
:105470008F878F858B3008F47ECF82E063E041E038
:105480000E94391E60CFDF93CF930F92CDB7DEB766
:1054900082E063E00E94D91E81E00E94B42082E095
:1054A00063E00E94F81E82E063E040E80E94391E3B
:1054B0002AE730E082E063E0A9010E9472200E94A6
:1054C000C620898382E063E049810E94991D82E0C1
:1054D00063E041E00E94391EE2CFDF93CF93CDB766
:1054E000DEB782E063E00E94D91E82E063E00E94A2
:1054F000F81E82E063E040E80E94391E82E063E02B
:1055000041E00E94391EF1CFDF93CF93CDB7DEB7D4
:1055100082E063E00E94D91E82E063E00E94F81EF0
:1055200082E063E040E80E94391E82E063E041E0EF
:105530000E94391EF1CFDF93CF93CDB7DEB781E064
:1055400062E00E945A2281E00E94630681E063E0EB
:105550000E94810680E00E94580781E060E00E947E
:105560000010FBCFDF93CF93CDB7DEB7FFCFDF9334
:10557000CF93CDB7DEB7FFCF1F920F920FB60F922A
:1055800011242F933F934F935F936F937F938F9348
:105590009F93AF93BF93EF93FF93DF93CF93CDB7D9
:1055A000DEB72E97DEBFCDBF85E062E00E9470229D
:1055B000882309F076C081E060E00E94161080E048
:1055C00090E0AAE7B4E48B879C87AD87BE876B85A4
:1055D0007C858D859E8520E030E04AEF54E40E9472
:1055E0001702DC01CB018F839887A987BA876F8167
:1055F000788589859A8520E030E040E85FE30E9465
:10560000710388232CF481E090E09E838D833FC05A
:105610006F81788589859A8520E03FEF4FE757E4D1
:105620000E94110318164CF56B857C858D859E852F
:1056300020E030E040E251E40E941702DC01CB019F
:10564000BC01CD010E944100DC01CB019E838D8312
:105650000FC088EC90E09C838B838B819C810197A9
:10566000F1F79C838B838D819E8101979E838D832F
:105670008D819E81009769F714C06F817885898537
:105680009A850E944100DC01CB019E838D838D8130
:105690009E819A83898389819A810197F1F79A8300
:1056A00089832E96DEBFCDBFCF91DF91FF91EF9121
:1056B000BF91AF919F918F917F916F915F914F912A
:1056C0003F912F910F900FBE0F901F9018951F9232
:1056D0000F920FB60F921124DF93CF93CDB7DEB7A1
:1056E000CF91DF910F900FBE0F901F9018951F92D2
:1056F0000F920FB60F921124DF93CF93CDB7DEB781
:10570000CF91DF910F900FBE0F901F901895DF93F0
:10571000CF930F92CDB7DEB782E063E00E94D91E2F
:1057200080E00E94720B81E00E94A20D80E00E9446
:10573000140C81E00E94D90B898382E063E00E940F
:10574000F81E82E063E040E80E94391E82E063E0D8
:1057500049810E94991D82E063E041E00E94391E68
:10576000DFCFDF93CF93CDB7DEB7FFCFDF93CF93FC
:10577000CDB7DEB7FFCFDF93CF930F92CDB7DEB7B4
:10578000898382E00E94962282E062E041E00E94EA
:10579000A42282E062E049810E94DC22FACFDF93FA
:1057A000CF93CDB7DEB782E00E94962282E062E01E
:1057B00041E00E94A42282E062E00E945223FBCFDB
:1057C000DF93CF93CDB7DEB7AD970FB6F894DEBFBA
:1057D0000FBECDBF1DA682E00E94962282E062E04D
:1057E00041E00E94A42281E060E00E945A2281E010
:1057F00061E00E945A2285E060E00E9470228CA73E
:1058000080E090E0A8ECB2E48FA398A7A9A7BAA77C
:105810006FA178A589A59AA520E030E04AEF54E46D
:105820000E941702DC01CB018BA39CA3ADA3BEA3F6
:105830006BA17CA18DA19EA120E030E040E85FE358
:105840000E94710388232CF481E090E09AA389A33D
:105850003FC06BA17CA18DA19EA120E03FEF4FE74F
:1058600057E40E94110318164CF56FA178A589A57D
:105870009AA520E030E040E251E40E941702DC01EA
:10588000CB01BC01CD010E944100DC01CB019AA3F8
:1058900089A30FC088EC90E098A38F8F8F8D98A17B
:1058A0000197F1F798A38F8F89A19AA101979AA3E5
:1058B00089A389A19AA1009769F714C06BA17CA163
:1058C0008DA19EA10E944100DC01CB019AA389A376
:1058D00089A19AA19E8F8D8F8D8D9E8D0197F1F755
:1058E0009E8F8D8F8CA5882369F48DA58F5F8DA7E2
:1058F00082E062E04DA50E94DC2281E062E00E942D
:10590000001004C081E062E00E94161085E061E0B2
:105910000E9470228BA780E090E0A8ECB2E4898F0F
:105920009A8FAB8FBC8F698D7A8D8B8D9C8D20E08B
:1059300030E04AEF54E40E941702DC01CB018D8B6A
:105940009E8BAF8BB88F6D897E898F89988D20E073
:1059500030E040E85FE30E94710388232CF481E08B
:1059600090E09C8B8B8B3FC06D897E898F89988D51
:1059700020E03FEF4FE757E40E94110318164CF563
:10598000698D7A8D8B8D9C8D20E030E040E251E472
:105990000E941702DC01CB01BC01CD010E94410035
:1059A000DC01CB019C8B8B8B0FC088EC90E09A8B39
:1059B000898B89899A890197F1F79A8B898B8B89D1
:1059C0009C8901979C8B8B8B8B899C89009769F7AD
:1059D00014C06D897E898F89988D0E944100DC01F9
:1059E000CB019C8B8B8B8B899C89988B8F878F8528
:1059F00098890197F1F7988B8F878BA5882369F495
:105A00008DA581508DA782E062E04DA50E94DC2229
:105A100081E063E00E94001004C081E063E00E9426
:105A200016108DA58A3008F47DC01DA682E062E0C4
:105A30004DA50E94DC2281E064E00E94001080E01D
:105A400090E0AAE7B4E48B879C87AD87BE876B851F
:105A50007C858D859E8520E030E04AEF54E40E94ED
:105A60001702DC01CB018F839887A987BA876F81E2
:105A7000788589859A8520E030E040E85FE30E94E0
:105A8000710388232CF481E090E09E838D833FC0D6
:105A90006F81788589859A8520E03FEF4FE757E44D
:105AA0000E94110318164CF56B857C858D859E85AB
:105AB00020E030E040E251E40E941702DC01CB011B
:105AC000BC01CD010E944100DC01CB019E838D838E
:105AD0000FC088EC90E09C838B838B819C81019725
